{
  "contractName": "HealthRecords",
  "abi": [
    {
      "inputs": [],
      "stateMutability": "nonpayable",
      "type": "constructor"
    },
    {
      "inputs": [
        {
          "internalType": "string",
          "name": "patientName",
          "type": "string"
        },
        {
          "internalType": "string",
          "name": "diagnosis",
          "type": "string"
        },
        {
          "internalType": "uint256",
          "name": "age",
          "type": "uint256"
        },
        {
          "internalType": "string",
          "name": "gender",
          "type": "string"
        },
        {
          "internalType": "string",
          "name": "staffId",
          "type": "string"
        }
      ],
      "name": "addRecord",
      "outputs": [],
      "stateMutability": "nonpayable",
      "type": "function"
    },
    {
      "inputs": [
        {
          "internalType": "string",
          "name": "patientName",
          "type": "string"
        },
        {
          "internalType": "string",
          "name": "staffId",
          "type": "string"
        }
      ],
      "name": "getRecord",
      "outputs": [
        {
          "components": [
            {
              "internalType": "string",
              "name": "name",
              "type": "string"
            },
            {
              "internalType": "string",
              "name": "diagnosis",
              "type": "string"
            },
            {
              "internalType": "uint256",
              "name": "age",
              "type": "uint256"
            },
            {
              "internalType": "string",
              "name": "gender",
              "type": "string"
            }
          ],
          "internalType": "struct HealthRecords.PatientRecord",
          "name": "",
          "type": "tuple"
        }
      ],
      "stateMutability": "view",
      "type": "function"
    },
    {
      "inputs": [
        {
          "internalType": "string",
          "name": "patientName",
          "type": "string"
        },
        {
          "internalType": "string",
          "name": "staffId",
          "type": "string"
        }
      ],
      "name": "deleteRecord",
      "outputs": [],
      "stateMutability": "nonpayable",
      "type": "function"
    }
  ],
  "bytecode": "0x608060405234801561001057600080fd5b506001806040518060400160405280600b81526020017f526968616e6e614173617000000000000000000000000000000000000000000081525060405161005791906101f3565b908152602001604051809103902060006101000a81548160ff0219169083151502179055506001806040518060400160405280600981526020017f42726f776e536b696e00000000000000000000000000000000000000000000008152506040516100c291906101f3565b908152602001604051809103902060006101000a81548160ff0219169083151502179055506001806040518060400160405280600a81526020017f436f6f6c4170616368650000000000000000000000000000000000000000000081525060405161012d91906101f3565b908152602001604051809103902060006101000a81548160ff0219169083151502179055506001806040518060400160405280600881526020017f526564526f73657300000000000000000000000000000000000000000000000081525060405161019891906101f3565b908152602001604051809103902060006101000a81548160ff021916908315150217905550610253565b60006101cd8261020a565b6101d78185610215565b93506101e7818560208601610220565b80840191505092915050565b60006101ff82846101c2565b915081905092915050565b600081519050919050565b600081905092915050565b60005b8381101561023e578082015181840152602081019050610223565b8381111561024d576000848401525b50505050565b610b16806102626000396000f3fe608060405234801561001057600080fd5b50600436106100415760003560e01c806319dddfa5146100465780633b91e045146100625780638a53ddb91461007e575b600080fd5b610060600480360381019061005b919061067d565b6100ae565b005b61007c600480360381019061007791906106e9565b610178565b005b6100986004803603810190610093919061067d565b61028f565b6040516100a59190610921565b60405180910390f35b806001816040516100bf91906108ea565b908152602001604051809103902060009054906101000a900460ff1661011a576040517f08c379a000000000000000000000000000000000000000000000000000000000815260040161011190610901565b60405180910390fd5b60008360405161012a91906108ea565b90815260200160405180910390206000808201600061014991906104f5565b60018201600061015991906104f5565b600282016000905560038201600061017191906104f5565b5050505050565b8060018160405161018991906108ea565b908152602001604051809103902060009054906101000a900460ff166101e4576040517f08c379a00000000000000000000000000000000000000000000000000000000081526004016101db90610901565b60405180910390fd5b60405180608001604052808781526020018681526020018581526020018481525060008760405161021591906108ea565b9081526020016040518091039020600082015181600001908051906020019061023f929190610535565b50602082015181600101908051906020019061025c929190610535565b50604082015181600201556060820151816003019080519060200190610283929190610535565b50905050505050505050565b6102976105bb565b816001816040516102a891906108ea565b908152602001604051809103902060009054906101000a900460ff16610303576040517f08c379a00000000000000000000000000000000000000000000000000000000081526004016102fa90610901565b60405180910390fd5b60008460405161031391906108ea565b908152602001604051809103902060405180608001604052908160008201805461033c90610a28565b80601f016020809104026020016040519081016040528092919081815260200182805461036890610a28565b80156103b55780601f1061038a576101008083540402835291602001916103b5565b820191906000526020600020905b81548152906001019060200180831161039857829003601f168201915b505050505081526020016001820180546103ce90610a28565b80601f01602080910402602001604051908101604052809291908181526020018280546103fa90610a28565b80156104475780601f1061041c57610100808354040283529160200191610447565b820191906000526020600020905b81548152906001019060200180831161042a57829003601f168201915b505050505081526020016002820154815260200160038201805461046a90610a28565b80601f016020809104026020016040519081016040528092919081815260200182805461049690610a28565b80156104e35780601f106104b8576101008083540402835291602001916104e3565b820191906000526020600020905b8154815290600101906020018083116104c657829003601f168201915b50505050508152505091505092915050565b50805461050190610a28565b6000825580601f106105135750610532565b601f01602090049060005260206000209081019061053191906105e3565b5b50565b82805461054190610a28565b90600052602060002090601f01602090048101928261056357600085556105aa565b82601f1061057c57805160ff19168380011785556105aa565b828001600101855582156105aa579182015b828111156105a957825182559160200191906001019061058e565b5b5090506105b791906105e3565b5090565b6040518060800160405280606081526020016060815260200160008152602001606081525090565b5b808211156105fc5760008160009055506001016105e4565b5090565b600061061361060e84610974565b610943565b90508281526020810184848401111561062b57600080fd5b6106368482856109e6565b509392505050565b600082601f83011261064f57600080fd5b813561065f848260208601610600565b91505092915050565b60008135905061067781610ac9565b92915050565b6000806040838503121561069057600080fd5b600083013567ffffffffffffffff8111156106aa57600080fd5b6106b68582860161063e565b925050602083013567ffffffffffffffff8111156106d357600080fd5b6106df8582860161063e565b9150509250929050565b600080600080600060a0868803121561070157600080fd5b600086013567ffffffffffffffff81111561071b57600080fd5b6107278882890161063e565b955050602086013567ffffffffffffffff81111561074457600080fd5b6107508882890161063e565b945050604061076188828901610668565b935050606086013567ffffffffffffffff81111561077e57600080fd5b61078a8882890161063e565b925050608086013567ffffffffffffffff8111156107a757600080fd5b6107b38882890161063e565b9150509295509295909350565b60006107cb826109a4565b6107d581856109af565b93506107e58185602086016109f5565b6107ee81610ab8565b840191505092915050565b6000610804826109a4565b61080e81856109d1565b935061081e8185602086016109f5565b80840191505092915050565b6000610837600e836109c0565b91507f4e6f7420617574686f72697a65640000000000000000000000000000000000006000830152602082019050919050565b6000608083016000830151848203600086015261088782826107c0565b915050602083015184820360208601526108a182826107c0565b91505060408301516108b660408601826108db565b50606083015184820360608601526108ce82826107c0565b9150508091505092915050565b6108e4816109dc565b82525050565b60006108f682846107f9565b915081905092915050565b6000602082019050818103600083015261091a8161082a565b9050919050565b6000602082019050818103600083015261093b818461086a565b905092915050565b6000604051905081810181811067ffffffffffffffff8211171561096a57610969610a89565b5b8060405250919050565b600067ffffffffffffffff82111561098f5761098e610a89565b5b601f19601f8301169050602081019050919050565b600081519050919050565b600082825260208201905092915050565b600082825260208201905092915050565b600081905092915050565b6000819050919050565b82818337600083830152505050565b60005b83811015610a135780820151818401526020810190506109f8565b83811115610a22576000848401525b50505050565b60006002820490506001821680610a4057607f821691505b60208210811415610a5457610a53610a5a565b5b50919050565b7f4e487b7100000000000000000000000000000000000000000000000000000000600052602260045260246000fd5b7f4e487b7100000000000000000000000000000000000000000000000000000000600052604160045260246000fd5b6000601f19601f8301169050919050565b610ad2816109dc565b8114610add57600080fd5b5056fea26469706673582212201debf989ba05d3cff688c17473dfbf160285be90d067eefea8eca7662ac65bdc64736f6c63430008000033",
  "immutableReferences": {},
  "source": "// SPDX-License-Identifier: MIT\r\npragma solidity ^0.8.0;\r\n\r\ncontract HealthRecords {\r\n    // Structure to store patient records\r\n    struct PatientRecord {\r\n        string name;\r\n        string diagnosis;\r\n        uint age;\r\n        string gender;\r\n    }\r\n\r\n    // Mapping to store patient records\r\n    mapping(string => PatientRecord) private records;\r\n\r\n    // Mapping to track authorized staff\r\n    mapping(string => bool) private authorizedStaff;\r\n\r\n    // Define staff IDs\r\n    string private constant STAFF_ID_RIHANNA_ASAP = \"RihannaAsap\";\r\n    string private constant STAFF_ID_BROWN_SKIN = \"BrownSkin\";\r\n    string private constant STAFF_ID_COOL_APACHE = \"CoolApache\";\r\n    string private constant STAFF_ID_RED_ROSES = \"RedRoses\";\r\n\r\n    constructor() {\r\n        // Initialize with authorized staff IDs\r\n        authorizedStaff[STAFF_ID_RIHANNA_ASAP] = true;\r\n        authorizedStaff[STAFF_ID_BROWN_SKIN] = true;\r\n        authorizedStaff[STAFF_ID_COOL_APACHE] = true;\r\n        authorizedStaff[STAFF_ID_RED_ROSES] = true;\r\n    }\r\n\r\n    // Modifier to check if caller is authorized\r\n    modifier onlyAuthorized(string memory staffId) {\r\n        require(authorizedStaff[staffId], \"Not authorized\");\r\n        _;\r\n    }\r\n\r\n    // Function to add a new patient record\r\n    function addRecord(\r\n        string memory patientName,\r\n        string memory diagnosis,\r\n        uint age,\r\n        string memory gender,\r\n        string memory staffId\r\n    ) public onlyAuthorized(staffId) {\r\n        records[patientName] = PatientRecord(\r\n            patientName,\r\n            diagnosis,\r\n            age,\r\n            gender\r\n        );\r\n    }\r\n\r\n    // Function to retrieve a patient record\r\n    function getRecord(\r\n        string memory patientName,\r\n        string memory staffId\r\n    ) public view onlyAuthorized(staffId) returns (PatientRecord memory) {\r\n        return records[patientName];\r\n    }\r\n\r\n    // Function to delete a patient record\r\n    function deleteRecord(\r\n        string memory patientName,\r\n        string memory staffId\r\n    ) public onlyAuthorized(staffId) {\r\n        delete records[patientName];\r\n    }\r\n}\r\n",
  "sourcePath": "C:\\Users\\KGL\\Healthrecords-management\\contracts\\HealthRecords.sol",
  "compiler": {
    "name": "solc",
    "version": "0.8.0+commit.c7dfd78e.Emscripten.clang"
  },
  "schemaVersion": "3.4.16",
  "updatedAt": "2024-09-01T19:25:00.973Z",
  "devdoc": {
    "kind": "dev",
    "methods": {},
    "version": 1
  },
  "userdoc": {
    "kind": "user",
    "methods": {},
    "version": 1
  }
}