{
  "contractName": "HealthDataManagement",
  "abi": [
    {
      "inputs": [],
      "stateMutability": "nonpayable",
      "type": "constructor"
    },
    {
      "inputs": [
        {
          "internalType": "string",
          "name": "name",
          "type": "string"
        },
        {
          "internalType": "uint256",
          "name": "age",
          "type": "uint256"
        },
        {
          "internalType": "string",
          "name": "gender",
          "type": "string"
        },
        {
          "internalType": "string",
          "name": "diagnosis",
          "type": "string"
        }
      ],
      "name": "addPatient",
      "outputs": [],
      "stateMutability": "nonpayable",
      "type": "function"
    },
    {
      "inputs": [
        {
          "internalType": "string",
          "name": "name",
          "type": "string"
        }
      ],
      "name": "getPatient",
      "outputs": [
        {
          "internalType": "string",
          "name": "",
          "type": "string"
        },
        {
          "internalType": "uint256",
          "name": "",
          "type": "uint256"
        },
        {
          "internalType": "string",
          "name": "",
          "type": "string"
        },
        {
          "internalType": "string",
          "name": "",
          "type": "string"
        }
      ],
      "stateMutability": "view",
      "type": "function"
    },
    {
      "inputs": [
        {
          "internalType": "string",
          "name": "name",
          "type": "string"
        },
        {
          "internalType": "uint256",
          "name": "age",
          "type": "uint256"
        },
        {
          "internalType": "string",
          "name": "gender",
          "type": "string"
        },
        {
          "internalType": "string",
          "name": "diagnosis",
          "type": "string"
        }
      ],
      "name": "updatePatient",
      "outputs": [],
      "stateMutability": "nonpayable",
      "type": "function"
    },
    {
      "inputs": [
        {
          "internalType": "string",
          "name": "name",
          "type": "string"
        }
      ],
      "name": "deletePatient",
      "outputs": [],
      "stateMutability": "nonpayable",
      "type": "function"
    }
  ],
  "bytecode": "0x608060405234801561000f575f80fd5b506001805f7331cddd213c4c8b57713608a28dcc0fc718a4b83973ffffffffffffffffffffffffffffffffffffffff1673ffffffffffffffffffffffffffffffffffffffff1681526020019081526020015f205f6101000a81548160ff021916908315150217905550610ea6806100855f395ff3fe608060405234801561000f575f80fd5b506004361061004a575f3560e01c806333f0d5ea1461004e578063b64358da1461006a578063c9076c9b14610086578063e79a7a2e146100a2575b5f80fd5b610068600480360381019061006391906108a7565b6100d5565b005b610084600480360381019061007f91906108a7565b6101ef565b005b6100a0600480360381019061009b919061095f565b610376565b005b6100bc60048036038101906100b7919061095f565b6104c2565b6040516100cc9493929190610a2f565b60405180910390f35b60015f3373ffffffffffffffffffffffffffffffffffffffff1673ffffffffffffffffffffffffffffffffffffffff1681526020019081526020015f205f9054906101000a900460ff1661015e576040517f08c379a000000000000000000000000000000000000000000000000000000000815260040161015590610ad1565b60405180910390fd5b6040518060800160405280858152602001848152602001838152602001828152505f8560405161018e9190610b29565b90815260200160405180910390205f820151815f0190816101af9190610d39565b506020820151816001015560408201518160020190816101cf9190610d39565b5060608201518160030190816101e59190610d39565b5090505050505050565b60015f3373ffffffffffffffffffffffffffffffffffffffff1673ffffffffffffffffffffffffffffffffffffffff1681526020019081526020015f205f9054906101000a900460ff16610278576040517f08c379a000000000000000000000000000000000000000000000000000000000815260040161026f90610ad1565b60405180910390fd5b5f80856040516102889190610b29565b90815260200160405180910390205f0180546102a390610b6c565b9050036102e5576040517f08c379a00000000000000000000000000000000000000000000000000000000081526004016102dc90610e52565b60405180910390fd5b6040518060800160405280858152602001848152602001838152602001828152505f856040516103159190610b29565b90815260200160405180910390205f820151815f0190816103369190610d39565b506020820151816001015560408201518160020190816103569190610d39565b50606082015181600301908161036c9190610d39565b5090505050505050565b60015f3373ffffffffffffffffffffffffffffffffffffffff1673ffffffffffffffffffffffffffffffffffffffff1681526020019081526020015f205f9054906101000a900460ff166103ff576040517f08c379a00000000000000000000000000000000000000000000000000000000081526004016103f690610ad1565b60405180910390fd5b5f808260405161040f9190610b29565b90815260200160405180910390205f01805461042a90610b6c565b90500361046c576040517f08c379a000000000000000000000000000000000000000000000000000000000815260040161046390610e52565b60405180910390fd5b5f8160405161047b9190610b29565b90815260200160405180910390205f8082015f61049891906106cf565b600182015f9055600282015f6104ae91906106cf565b600382015f6104bd91906106cf565b505050565b60605f6060805f80866040516104d89190610b29565b90815260200160405180910390206040518060800160405290815f8201805461050090610b6c565b80601f016020809104026020016040519081016040528092919081815260200182805461052c90610b6c565b80156105775780601f1061054e57610100808354040283529160200191610577565b820191905f5260205f20905b81548152906001019060200180831161055a57829003601f168201915b505050505081526020016001820154815260200160028201805461059a90610b6c565b80601f01602080910402602001604051908101604052809291908181526020018280546105c690610b6c565b80156106115780601f106105e857610100808354040283529160200191610611565b820191905f5260205f20905b8154815290600101906020018083116105f457829003601f168201915b5050505050815260200160038201805461062a90610b6c565b80601f016020809104026020016040519081016040528092919081815260200182805461065690610b6c565b80156106a15780601f10610678576101008083540402835291602001916106a1565b820191905f5260205f20905b81548152906001019060200180831161068457829003601f168201915b5050505050815250509050805f01518160200151826040015183606001519450945094509450509193509193565b5080546106db90610b6c565b5f825580601f106106ec5750610709565b601f0160209004905f5260205f2090810190610708919061070c565b5b50565b5b80821115610723575f815f90555060010161070d565b5090565b5f604051905090565b5f80fd5b5f80fd5b5f80fd5b5f80fd5b5f601f19601f8301169050919050565b7f4e487b71000000000000000000000000000000000000000000000000000000005f52604160045260245ffd5b61078682610740565b810181811067ffffffffffffffff821117156107a5576107a4610750565b5b80604052505050565b5f6107b7610727565b90506107c3828261077d565b919050565b5f67ffffffffffffffff8211156107e2576107e1610750565b5b6107eb82610740565b9050602081019050919050565b828183375f83830152505050565b5f610818610813846107c8565b6107ae565b9050828152602081018484840111156108345761083361073c565b5b61083f8482856107f8565b509392505050565b5f82601f83011261085b5761085a610738565b5b813561086b848260208601610806565b91505092915050565b5f819050919050565b61088681610874565b8114610890575f80fd5b50565b5f813590506108a18161087d565b92915050565b5f805f80608085870312156108bf576108be610730565b5b5f85013567ffffffffffffffff8111156108dc576108db610734565b5b6108e887828801610847565b94505060206108f987828801610893565b935050604085013567ffffffffffffffff81111561091a57610919610734565b5b61092687828801610847565b925050606085013567ffffffffffffffff81111561094757610946610734565b5b61095387828801610847565b91505092959194509250565b5f6020828403121561097457610973610730565b5b5f82013567ffffffffffffffff81111561099157610990610734565b5b61099d84828501610847565b91505092915050565b5f81519050919050565b5f82825260208201905092915050565b5f5b838110156109dd5780820151818401526020810190506109c2565b5f8484015250505050565b5f6109f2826109a6565b6109fc81856109b0565b9350610a0c8185602086016109c0565b610a1581610740565b840191505092915050565b610a2981610874565b82525050565b5f6080820190508181035f830152610a4781876109e8565b9050610a566020830186610a20565b8181036040830152610a6881856109e8565b90508181036060830152610a7c81846109e8565b905095945050505050565b7f556e617574686f72697a656420616363657373000000000000000000000000005f82015250565b5f610abb6013836109b0565b9150610ac682610a87565b602082019050919050565b5f6020820190508181035f830152610ae881610aaf565b9050919050565b5f81905092915050565b5f610b03826109a6565b610b0d8185610aef565b9350610b1d8185602086016109c0565b80840191505092915050565b5f610b348284610af9565b915081905092915050565b7f4e487b71000000000000000000000000000000000000000000000000000000005f52602260045260245ffd5b5f6002820490506001821680610b8357607f821691505b602082108103610b9657610b95610b3f565b5b50919050565b5f819050815f5260205f209050919050565b5f6020601f8301049050919050565b5f82821b905092915050565b5f60088302610bf87fffffffffffffffffffffffffffffffffffffffffffffffffffffffffffffffff82610bbd565b610c028683610bbd565b95508019841693508086168417925050509392505050565b5f819050919050565b5f610c3d610c38610c3384610874565b610c1a565b610874565b9050919050565b5f819050919050565b610c5683610c23565b610c6a610c6282610c44565b848454610bc9565b825550505050565b5f90565b610c7e610c72565b610c89818484610c4d565b505050565b5b81811015610cac57610ca15f82610c76565b600181019050610c8f565b5050565b601f821115610cf157610cc281610b9c565b610ccb84610bae565b81016020851015610cda578190505b610cee610ce685610bae565b830182610c8e565b50505b505050565b5f82821c905092915050565b5f610d115f1984600802610cf6565b1980831691505092915050565b5f610d298383610d02565b9150826002028217905092915050565b610d42826109a6565b67ffffffffffffffff811115610d5b57610d5a610750565b5b610d658254610b6c565b610d70828285610cb0565b5f60209050601f831160018114610da1575f8415610d8f578287015190505b610d998582610d1e565b865550610e00565b601f198416610daf86610b9c565b5f5b82811015610dd657848901518255600182019150602085019450602081019050610db1565b86831015610df35784890151610def601f891682610d02565b8355505b6001600288020188555050505b505050505050565b7f50617469656e74207265636f726420646f6573206e6f742065786973740000005f82015250565b5f610e3c601d836109b0565b9150610e4782610e08565b602082019050919050565b5f6020820190508181035f830152610e6981610e30565b905091905056fea26469706673582212201eb5caf804b215e09335302796ef94be4ced89c8800c3099de9df355268e250864736f6c63430008150033",
  "immutableReferences": {},
  "source": "// SPDX-License-Identifier: MIT\r\npragma solidity ^0.8.21;\r\n\r\ncontract HealthDataManagement {\r\n    struct Patient {\r\n        string name;\r\n        uint age;\r\n        string gender;\r\n        string diagnosis;\r\n    }\r\n\r\n    mapping(string => Patient) private patients;\r\n    mapping(address => bool) private authorizedIDs;\r\n\r\n    // Constructor to initialize authorized addresses\r\n    constructor() {\r\n        authorizedIDs [0x31cDdd213C4c8B57713608A28DcC0fc718A4b839] = true; // Metamask address\r\n        \r\n     \r\n    }\r\n\r\n    // Modifier to check if the sender is authorized\r\n    modifier onlyAuthorized() {\r\n        require(authorizedIDs[msg.sender], \"Unauthorized access\");\r\n        _;\r\n    }\r\n\r\n    // Add a new patient record\r\n    function addPatient(string memory name, uint age, string memory gender, string memory diagnosis) public onlyAuthorized {\r\n        patients[name] = Patient(name, age, gender, diagnosis);\r\n    }\r\n\r\n    // Retrieve a patient record\r\n    function getPatient(string memory name) public view returns (string memory, uint, string memory, string memory) {\r\n        Patient memory patient = patients[name];\r\n        return (patient.name, patient.age, patient.gender, patient.diagnosis);\r\n    }\r\n\r\n    // Update a patient record\r\n    function updatePatient(string memory name, uint age, string memory gender, string memory diagnosis) public onlyAuthorized {\r\n        require(bytes(patients[name].name).length != 0, \"Patient record does not exist\");\r\n        patients[name] = Patient(name, age, gender, diagnosis);\r\n    }\r\n\r\n    // Delete a patient record\r\n    function deletePatient(string memory name) public onlyAuthorized {\r\n        require(bytes(patients[name].name).length != 0, \"Patient record does not exist\");\r\n        delete patients[name];\r\n    }\r\n}\r\n",
  "sourcePath": "C:\\Users\\padebayo\\OneDrive - Health Connect 24x7\\Desktop\\healthdata-management\\contracts\\HealthDataManagement.sol",
  "compiler": {
    "name": "solc",
    "version": "0.8.21+commit.d9974bed.Emscripten.clang"
  },
  "schemaVersion": "3.4.16",
  "updatedAt": "2024-09-04T17:37:54.798Z",
  "devdoc": {
    "kind": "dev",
    "methods": {},
    "version": 1
  },
  "userdoc": {
    "kind": "user",
    "methods": {},
    "version": 1
  }
}